:020000040000fa
:080000000002040000000000f2
:020000040000fa
:04000800ae03000043
:020000040000fa
:04000c00ae0300003f
:020000040000fa
:04001000ae0300003b
:020000040000fa
:04001400ae03000037
:020000040000fa
:04001800ae03000033
:020000040000fa
:04001c00ae0300002f
:020000040000fa
:04002000ae0300002b
:020000040000fa
:04002400ae03000027
:020000040000fa
:04002800ae03000023
:020000040000fa
:04002c00ae0300001f
:020000040000fa
:04003000ae0300001b
:020000040000fa
:0400340024030000a1
:020000040000fa
:04003800ae03000013
:020000040000fa
:04003c00ae0300000f
:020000040000fa
:04004000ae0300000b
:020000040000fa
:04004400ae03000007
:020000040000fa
:04004800fa020000b8
:020000040000fa
:04004c00ae030000ff
:020000040000fa
:04005000ae030000fb
:020000040000fa
:04005400ae030000f7
:020000040000fa
:04005800ae030000f3
:020000040000fa
:04005c008c03000011
:020000040000fa
:04006000ae030000eb
:020000040000fa
:04006400ae030000e7
:020000040000fa
:04006800ae030000e3
:020000040000fa
:04006c00ae030000df
:020000040000fa
:04007000ae030000db
:020000040000fa
:04007400ae030000d7
:020000040000fa
:04007800ae030000d3
:020000040000fa
:04007c00ae030000cf
:020000040000fa
:04008000ae030000cb
:020000040000fa
:04008400ae030000c7
:020000040000fa
:04008800ae030000c3
:020000040000fa
:04008c00ae030000bf
:020000040000fa
:04009000ae030000bb
:020000040000fa
:040094006203000003
:020000040000fa
:04009800ae030000b3
:020000040000fa
:04009c00ae030000af
:020000040000fa
:0400a000ae030000ab
:020000040000fa
:0400a400ae030000a7
:020000040000fa
:0400a800ae030000a3
:020000040000fa
:0400ac00ae0300009f
:020000040000fa
:0400b000ae0300009b
:020000040000fa
:0400b400ae03000097
:020000040000fa
:0400b800ae03000093
:020000040000fa
:0400bc00ae0300008f
:020000040000fa
:0400c000ae0300008b
:020000040000fa
:0400c400ae03000087
:020000040000fa
:0400c800ae03000083
:020000040000fa
:0400cc00ae0300007f
:020000040000fa
:0400d000ae0300007b
:020000040000fa
:0400d400ae03000077
:020000040000fa
:0400d800ae03000073
:020000040000fa
:0400dc00ae0300006f
:020000040000fa
:0400e000ae0300006b
:020000040000fa
:0400e400ae03000067
:020000040000fa
:0400e800ae03000063
:020000040000fa
:0400ec00ae0300005f
:020000040000fa
:0400f000ae0300005b
:020000040000fa
:0400f400ae03000057
:020000040000fa
:0400f800ae03000053
:020000040000fa
:0400fc00ae0300004f
:020000040000fa
:04010000ae0300004a
:020000040000fa
:04010400ae03000046
:020000040000fa
:04010800ae03000042
:020000040000fa
:04010c00ae0300003e
:020000040000fa
:04011000ae0300003a
:020000040000fa
:04011400ae03000036
:020000040000fa
:04011800ae03000032
:020000040000fa
:04011c00ae0300002e
:020000040000fa
:04012000ae0300002a
:020000040000fa
:04012400ae03000026
:020000040000fa
:04012800ae03000022
:020000040000fa
:04012c00ae0300001e
:020000040000fa
:04013000ae0300001a
:020000040000fa
:04013400ae03000016
:020000040000fa
:04013800ae03000012
:020000040000fa
:04013c00ae0300000e
:020000040000fa
:04014000ae0300000a
:020000040000fa
:04014400ae03000006
:020000040000fa
:04014800ae03000002
:020000040000fa
:04014c00ae030000fe
:020000040000fa
:04015000ae030000fa
:020000040000fa
:04015400ae030000f6
:020000040000fa
:04015800ae030000f2
:020000040000fa
:04015c00ae030000ee
:020000040000fa
:04016000ae030000ea
:020000040000fa
:04016400ae030000e6
:020000040000fa
:04016800ae030000e2
:020000040000fa
:04016c00ae030000de
:020000040000fa
:04017000ae030000da
:020000040000fa
:04017400ae030000d6
:020000040000fa
:04017800ae030000d2
:020000040000fa
:04017c00ae030000ce
:020000040000fa
:04018000ae030000ca
:020000040000fa
:04018400ae030000c6
:020000040000fa
:04018800ae030000c2
:020000040000fa
:04018c00ae030000be
:020000040000fa
:04019000ae030000ba
:020000040000fa
:04019400ae030000b6
:020000040000fa
:04019800ae030000b2
:020000040000fa
:04019c00ae030000ae
:020000040000fa
:0401a000ae030000aa
:020000040000fa
:0401a400ae030000a6
:020000040000fa
:0401a800ae030000a2
:020000040000fa
:0401ac00ae0300009e
:020000040000fa
:0401b000ae0300009a
:020000040000fa
:0401b400ae03000096
:020000040000fa
:0401b800ae03000092
:020000040000fa
:0401bc00ae0300008e
:020000040000fa
:0401c000ae0300008a
:020000040000fa
:0401c400ae03000086
:020000040000fa
:0401c800ae03000082
:020000040000fa
:0401cc00ae0300007e
:020000040000fa
:0401d000ae0300007a
:020000040000fa
:0401d400ae03000076
:020000040000fa
:0401d800ae03000072
:020000040000fa
:0401dc00ae0300006e
:020000040000fa
:0401e000ae0300006a
:020000040000fa
:0401e400ae03000066
:020000040000fa
:0401e800ae03000062
:020000040000fa
:0401ec00ae0300005e
:020000040000fa
:0401f000ae0300005a
:020000040000fa
:0401f400ae03000056
:020000040000fa
:0401f800ae03000052
:020000040000fa
:0401fc00ae0300004e
:020000040000fa
:04020000ae03000049
:020000040000fa
:04020400ae03000045
:020000040000fa
:04020800ae03000041
:020000040000fa
:04020c00ae0300003d
:020000040000fa
:04021000ae03000039
:020000040000fa
:04021400ae03000035
:020000040000fa
:04021800ae03000031
:020000040000fa
:04021c00ae0300002d
:020000040000fa
:04022000ae03000029
:020000040000fa
:04022400ae03000025
:020000040000fa
:04022800ae03000021
:020000040000fa
:04022c00ae0300001d
:020000040000fa
:04023000ae03000019
:020000040000fa
:04023400ae03000015
:020000040000fa
:04023800ae03000011
:020000040000fa
:04023c00ae0300000d
:020000040000fa
:04024000ae03000009
:020000040000fa
:04024400ae03000005
:020000040000fa
:04024800ae03000001
:020000040000fa
:04024c00ae030000fd
:020000040000fa
:04025000ae030000f9
:020000040000fa
:04025400ae030000f5
:020000040000fa
:04025800ae030000f1
:020000040000fa
:04025c00ae030000ed
:020000040000fa
:04026000ae030000e9
:020000040000fa
:04026400ae030000e5
:020000040000fa
:04026800ae030000e1
:020000040000fa
:04026c00ae030000dd
:020000040000fa
:04027000ae030000d9
:020000040000fa
:04027400ae030000d5
:020000040000fa
:04027800ae030000d1
:020000040000fa
:04027c00ae030000cd
:020000040000fa
:04028000ae030000c9
:020000040000fa
:100400008f0321000eff2c000e0188000000000069
:10041000000020000000e000020032000001200087
:100420002002880014000700ce0007000000e00052
:1004300003003a0040fc20000100200002003700c9
:100440000000200001002000810f70000100320038
:100450000f000700000020000000e0000200320052
:1004600000000200000000001a0702000000000067
:100470000040da000000fe00200020000000e00044
:1004800002003200100020009001880000000600e9
:10049000a1028800800478000000eb001f003700f4
:1004a000e284440054a0b4009905ba00e2844400f8
:1004b00054a0b4009906ba00e284440054a0b400e9
:1004c0000006eb00476fde00fd07b200ae018800ba
:1004d000636ce10003003a000ad801000000eb0061
:1004e0000e003700606ce10008003a00004deb00a0
:1004f0000a05e800020039003420ec000af0a000f0
:100500008b05e900f9ff3e00040037006168e10057
:10051000010032000086eb000b00070019c7ba008b
:100520000e04e0001905ba0003003a000a00e000da
:10053000dbff3a0000000600fe07b200ae028800b2
:100540008a047800f5ff37000cd0a300e20f4d00bd
:100550001c00390089027800354dba000a05e80010
:10056000020039003420ec000af0a0008b05e900fd
:100570000f003200254dba000a05e80002003900dc
:100580003420ec000af0a0008b05e90008003200de
:100590000c00e0000600320015cdba000a05e800a4
:1005a000020039003420ec000af0a0008b05e900bd
:1005b0008984e80054a0b4000b00e000e2ff3a0098
:1005c000000006009902ba00055d78008b05e9007d
:1005d000f7ff3200c82ade00055d78008b05e900d0
:1005e000f3ff32000c00e000f1ff320019ddba0029
:1005f000eeff3700809fbe000000fa000108a9004e
:1006000021718000004020000080600000f0a70001
:100610000000ea000000e9004f00de000040780022
:100620000080fb00610060004a00dd002171800055
:1006300001a0a10001007000207188000080fa0074
:100640004f00be00004006003600f800809fbe004c
:10065000829fbe00849fbe00869fbe000000fa00fd
:100660000068a90021738000000420000080600061
:1006700000f0a7000000ea000000e9004f00de00e3
:10068000004078000080fb00610060004600dd0053
:10069000217380000160a1000100700020738800b8
:1006a0008e040700fd0507000080fa004f03be001e
:1006b0004f02be004f01be004f00be003600f900e1
:1006c000004006003600f800809fbe00829fbe00fa
:1006d000849fbe00869fbe000000fa000368a90048
:1006e000608080007180800061004000e0804800f0
:1006f0006080880071808800360207000080fa0060
:100700004f03be004f02be004f01be004f00be00af
:100710003600f90000400600809fbe000000fa008d
:1007200001a8a9000118800020002100010878001c
:10073000111880002000210011009800211880006d
:10074000200021002100980010c0b3000af0b7007b
:100750000080fa004f00be00004006000040da00b2
:100760000000fe000000050003f0a200889fbe000c
:100770008a9fbe008c1f7800180107001f013300fc
:100780006450e1004f0032006420e100520032006a
:1007900003826c0007003b000905d0000306d0006f
:1007a000820f54000c065d00020039000200320086
:1007b00089017800030678008582550004003d0019
:1007c0000003fd008103fd008502ea008b854200e5
:1007d000840f720002003b0060001000e0801800ef
:1007e0006011b8000005eb007a28e1000a0039002a
:1007f00006007800c75ddd00f707b200878075004e
:100800002d003700828171000a01780061056000c7
:100810008180d1000080d3008502e900f9ff3b0010
:10082000060440008784480002003b006004140076
:10083000e0841c000988a300070032008a8171004f
:1008400082817100610164008904d1000884d300b1
:100850008b05e800170037000978a30013003a0061
:100860000b00e000130034008b05e900080444008d
:1008700089844c000a4474000978a3000d003a00f2
:100880000b00e000070034008b05e9000804440079
:1008900089844c0001003a000b0020000978a30075
:1008a000f7ff32000001eb00020037008281710087
:1008b0000a0178008e0007000cf0a70001f0a000ec
:1008c000d70037006420e10002003a00838f6c00fb
:1008d000d70033000801be000200be00d000370080
:1008e000889fbe008a9fbe008c1f7800bb00070057
:1008f000c200330003866c006450e1002e00320019
:100900006420e100330032006150e1002f0032002a
:100910006120e1003100320085855500eb07b00011
:1009200009002000080420000500370008044400e6
:1009300089844c000a0031000603430087834b0082
:100940000001530081815b00f8ff33000203be0009
:100950000800a0000804440089844c00f6ff390018
:10096000c639dd008301730001003200130020004e
:100970008904d1000884d3000998a300050032003f
:100980000800a7000300a0008904d1000884d30058
:100990008b05e8008904d1000884d3000001eb0036
:1009a0000281d2005200070001f0a1000cf0a70064
:1009b00001f0a0009a0037006420e1009c003200a2
:1009c0000801be000200be00f7ff37006120e10011
:1009d000970032006000b800f3ff370000002000ed
:1009e00001f82700f0ff370014002000c70037008f
:1009f000f4ff2f00c50037000001be0062000700b1
:100a00000470a70003f0a1006509b10016003200d0
:100a10000d0035006828e10006003500f0ff2f00ca
:100a2000f1ff27000300e00013003b000100280055
:100a30000000050000004000818048008502e900b8
:100a4000fcff3a0008003700f88f420002003c002b
:100a50008000eb00000005008100d1000080d30081
:100a60008502e800fcff3a000300e00002003b00c2
:100a700060001000e0801800000006000001be00c9
:100a8000410007000470a70003f0a10003f8a300d1
:100a900013003a006509b10010003200090035006a
:100aa0006928e1000200350001002800000005006f
:100ab00000004000818048008502e900fcff3a0008
:100ac00000000600f88f4200050035008100d100cb
:100ad0000080d3008502e800fcff3a000000060019
:100ae0008000eb00000005006011b800a200370094
:100af00081002000618055000b003d000b002000ac
:100b000061fe2f000100e1001d00340082817100b0
:100b1000610164008904d1000884d3000000e8006a
:100b2000faff3a00710020006100640003007000c9
:100b3000020060000900320061044400e0844c00bf
:100b40000988a500050032008b05e8006808e1006f
:100b500002003a008904d1000884d300f20f20007b
:100b60000258e10005003d00c75ddd00f907b20055
:100b70008980750008007800000006000bf8270047
:100b80008b00780000000500c70ade00f107b20004
:100b9000f50fb20008003200e1cf4200020032003f
:100ba0000170a00024000500810f700001003200d8
:100bb0000408050044000500810f700002003a009f
:100bc000140005008502e9000000400081c04800d3
:100bd000fcff3b000170a000240005000004be00e3
:100be000e9ff07000003be000405be000200be00ce
:100bf000e5ff0700844f7500000006000200be00fc
:100c00006450e100050036006420e1000200360077
:100c10000968a30001003a000800be000160a000be
:100c20004f0678004f05be004f04be0000000600ce
:100c3000f0ff2f00f1ff2700f9ff3700889fbe006b
:100c40008a9fbe008c1f7800e4ff0700ebff330093
:100c500003866c006450e100240032006420e1004f
:100c6000270032006150e100220032006120e100e3
:100c7000210032008b854200eb07b1000134b8003f
:100c8000003ab8000804420089844a00013ab800da
:100c90000030b8008880400009014a000400330099
:100ca0000000400081804800020149008b05e900f6
:100cb000c909dd008301700001003200130020002b
:100cc000c814de004814dd004709de001200b2003f
:100cd000c808de000884700085ff070001f0a1004d
:100ce0000cf0a70001f0a000cdff37006120e1006b
:100cf000cfff32000801be000200be00f7ff370040
:100d00006150e100fcff3a00c9ff3700889fbe0038
:100d10008a9fbe00841f7800b0ff07004f00780054
:100d200011003300f0ff2f00838f6c0006003b00a2
:100d3000040565000a00a7000800370009f0a600b6
:100d40001000200008003700820f5400838f5c00e1
:100d5000030039001000200001003e0000002000c8
:100d600009f0a7000000ea004f05be004f04be00d6
:100d70000000e00000000600889fbe008a9fbe00c1
:100d800000827000040271000482710026003200ab
:100d90000004be000200be006011b8006b09200014
:100da000950220000182cf000a0039000541b10000
:100db0000082cf00070039000541b1000982cf0051
:100dc000040039000541b1000882cf00010039005c
:100dd0000541b10005425200120032000a003b00fa
:100de00082817100610164008100d1000080d30024
:100df0008984d3000884d3008b05e8000442e8000e
:100e0000f7ff3a00070037000804440089844c00cb
:100e100000004800818048008b05e9000442e90099
:100e2000f9ff3a0032ff07004f05be004f04be0035
:040e300000000600b8
:020000040000fa
:100e34000600fa0028040700640407007301070091
:100e44008b0107000902070087020700dc03070083
:100e54001200200000002000811c24003f03070032
:100e64000001eb0000002000811c24003b0307006c
:100e740064cea80064eea800254ea8000100370047
:100e8400000000000c040700e14f5000fcff3a0092
:100e940005040700000f78009e007800648040007d
:100ea400100078008000eb000eff070032332300af
:100eb4003305240060ff07000200200003582400cb
:100ec40086fe0700d2cc2c00c30424005aff07007e
:100ed40010079800210798001e019000ae019000b1
:100ee40000002000812024007cfe07000200200076
:100ef400030a24001bfe07006081880071818800ba
:100f04001e80e800100078008000eb00f5fe07006a
:100f1400323323003305240047ff0700020020007a
:100f2400035824006dfe0700d2cc2c00c304240017
:100f340041ff070010079800210798001e01900048
:100f4400ae019000000020008120240063fe070011
:100f540002002000030a240002fe070080818800aa
:100f6400918188001e007800100078008000eb005a
:100f7400dcfe070032332300330524002eff070074
:100f8400020020000358240054fe0700d2cc2c0099
:100f9400c304240028ff07001007980021079800c5
:100fa4001e019000ae01900000002000812024006a
:100fb4004afe070002002000030a2400e9fd07009e
:100fc400a0818800b1818800bf030700adff37000e
:100fd4000000fa0018d0bf000080fb00cf80de00c4
:100fe400b200200003002000820f5000838f5800bd
:100ff40060003e00000601000b00370014003700bb
:101004001d00370027003700280037003100370063
:10101400320037003b0037003c0037004600370001
:1010240047003700510037000c30ef000e30ef005e
:101034000001eb006000b800c802070012002000a5
:101044006000b800c502070010c0b30018f0b70074
:101054006280800073808000803e200001002000b8
:10106400800f5100818f59004500360020c0b30025
:1010740018f0b700430037000001eb000000200027
:10108400011f2400b5020700120020000000200008
:10109400011f2400b102070030c0b30018f0b700ec
:1010a4003800370039000700360037000001eb0034
:1010b40000002000011f2400a802070012002000e5
:1010c4006000b800a502070050c0b30018f0b700d4
:1010d4002c0037002d0007002a0037000001eb0028
:1010e4006000b8009d0207001200200000002000ec
:1010f400011f24009902070070c0b30018f0b70064
:1011040020003700210007001e0037000001eb001b
:1011140000002000011724009002070012002000a4
:101124000000200001172c008c02070090c0b300bf
:1011340018f0b7001300370014000700110037003f
:101144000001eb000000200001172c0083020700bf
:101154001200200000002000011724007f02070075
:10116400b0c0b30018f0b70006003700070007004e
:10117400040037001870ef00000000000100370081
:10118400000000000080fa00000006000200fa00df
:10119400881f78000040eb00004f7800a081800099
:1011a400b181800018c0b30002002000031f240096
:1011b4000cfe07000000e000010035000044eb00d5
:1011c4000804e000190032008081800091818000d1
:1011d40018c0b30002002000031a240003fe070015
:1011e4000000e00001003c000044eb000804e000c3
:1011f4000e003200608180007181800018c0b3004d
:1012040002002000031f2400f8fd07000000e00096
:1012140001003c000044eb000804e000030032003d
:1012240020c0b300004f780055003700a081800033
:10123400b181800018c0b30002002000031f240005
:10124400eafd07000000e00001003c000044eb0060
:101254000804e00019003200808180009181800040
:1012640018c0b30002002000031a2400dffd0700a9
:101274000000e00001003c000044eb000804e00032
:101284000e003200608180007181800018c0b300bc
:1012940002002000031f2400d2fd07000000e0002c
:1012a400010035000044eb000804e00003003200b4
:1012b40010c0b300004f78003100370080818000f7
:1012c4009181800018c0b30002002000031a24009a
:1012d400c4fd07000000e000010035000044eb00fd
:1012e4000804e0000300320030c0b300004f78006f
:1012f40023003700a0818000b181800018c0b300b2
:1013040002002000031f2400b8fd07000000e000d5
:1013140001003c000044eb000804e0001800320027
:10132400808180009181800018c0b30002002000f9
:10133400031a2400adfd07000000e00001003c009a
:101344000044eb000804e0000d00320060818000de
:101354007181800018c0b30002002000031f240024
:10136400a2fd07000000e00001003c000044eb0087
:101374000804e000020032000040eb00004f780057
:101384001e4078000004e00003003a0020c0b300cf
:1013940019f0b700110037001e407800e24f5000ea
:1013a40003003a0040c0b30019f0b7000b00370047
:1013b4001e407800e14f500003003a0060c0b300c3
:1013c40019f0b700050037001e407800e34f5000c5
:1013d40002003a0080c0b30019f0b70019d0bf0072
:1013e4008080fb0018d0bf000080fb000000e900f3
:1013f400808f50000200320019d0bf0018f0b700ef
:101404004f0478000080fa00000006000000fa0093
:1014140013e1a90011e1a9001061a8001021a9009d
:1014240081088000f0fc2f000080600080088800a4
:101434000a21ef000621ef00202620007008880012
:1014440000a02500600888002142800080ff2f0052
:10145400008060000000a000204288000108a9006c
:101464002108a80011e1a8000080fa00000006008d
:101474000000fa0000002000813424000700070067
:1014840005e1a9000421a9000068a9002068a800ba
:1014940005e1a8000080fa00000006000400fa003c
:1014a400881f7800008fbe0021088000f0fc2f0008
:1014b40000806000200888001e0178009e019000d2
:1014c4000068290081c1240004fd070018c0b3008e
:1014d40002f02f00f377240044fd07000000e00031
:1014e40001003c000044eb000804e000540032001a
:1014f40021088000f0fc2f00008060000040a00064
:10150400200888001e0178009e01900000682900d0
:1015140081c12400f1fc0700020020000310240014
:10152400eefc070018c0b30002f02f00f37724008c
:101534002efd07000000e00001003c000044eb0029
:101544000804e0003200320021088000f0fc2f0083
:10155400008060000050a000200888001e01780070
:101564009e0190000068290081c12400dbfc070073
:101574000200200003282400d8fc070018c0b30090
:1015840002f02f00f377240018fd07000000e000ac
:1015940001003c000044eb000804e00010003200ad
:1015a400210880000003200001007000200888004a
:1015b4001e0178009e0190000068290081c124006a
:1015c400c6fc07000200200003382400c3fc070007
:1015d40008fd07000000780010088800200037008c
:1015e4001e0178009e0190000068290081c124003a
:1015f400bafc07000200200003282400b7fc0700ff
:10160400fcfc070000007800100888001400370074
:101614001e0178009e0190000068290081c1240009
:10162400aefc07000200200003102400abfc0700fe
:10163400f0fc07000000780010088800080037005c
:101644001e0178009e0190000068290081c12400d9
:10165400a2fc0700e7fc07000000780010088800df
:101664004f0478000080fa00000006000000fa0031
:101674001fe1a90000002000a14724000600070084
:101684001e21a9000368a9002368a8001fe1a8007f
:101694000080fa00000006000400fa00881f7800a9
:1016a400008fbe00f1088000f0fc2f000080600075
:1016b400f00888001e0178009e019000006829004f
:1016c40081c1240085fc070018c0b30002f02f007c
:1016d400f3772400c5fc07000000e00001003c0093
:1016e4000044eb000804e00054003200f1088000dc
:1016f400f0fc2f00008060000040a000f00888008b
:101704001e0178009e0190000068290081c1240018
:1017140072fc070002002000031024006ffc070085
:1017240018c0b30002f02f00f3772400affc0700c9
:101734000000e00001003c000044eb000804e0006d
:1017440032003200f1088000f0fc2f0000806000bd
:101754000050a000f00888001e0178009e0190004f
:101764000068290081c124005cfc070002002000fd
:101774000328240059fc070018c0b30002f02f000e
:10178400f377240099fc07000000e00001003c000e
:101794000044eb000804e00010003200f10880006f
:1017a4000003200001007000f00888001e0178008a
:1017b4009e0190000068290081c1240047fc0700b5
:1017c400020020000338240044fc070089fc0700c1
:1017d40000007800d0088800200037001e0178003f
:1017e4009e0190000068290081c124003bfc070091
:1017f400020020000328240038fc07007dfc0700b9
:1018040000007800d0088800140037001e0178001a
:101814009e0190000068290081c124002ffc07006c
:1018240002002000031024002cfc070071fc0700b8
:1018340000007800d0088800080037001e017800f6
:101844009e0190000068290081c1240023fc070048
:1018540068fc070000007800d00888004f04780076
:101864000080fa00000006000000fa001160800009
:1018740080ff2f00008060001060880000fa2000c4
:101884002060880023aca800238ca800116180008c
:10189400f03f2f000080600000a0a00010618800cd
:1018a4003000200020618800c3aca800c38ca800cd
:1018b40011668000f03f2f000080600000a0a000af
:1018c40010668800300020002066880001eca80023
:1018d4000080fa00000006000000fa00889fbe00a5
:1018e4004481800055818000208180003181800006
:1018f40018c0b3000001be000400be0039fc07009c
:101904000000e000010035000044eb000804e000a2
:101914000d003200288180003981800044818000dc
:1019240055818000a0808000b18080000001be004d
:101934000400be008cfb07000801be00c7000700be
:101944004081880051818800448180005581800055
:10195400208180003181800018c0b3000001be00e6
:101964000400be0021fc07000000e00001003c0070
:101974000044eb000804e0000d00320028818000e0
:10198400398180004481800055818000a0808000de
:10199400b18080000001be000400be0071fb07009e
:1019a4000801be009500070040818800518188002d
:1019b400408180005181800018c0b3006011b800dc
:1019c4000afc07000000e00001003c000044eb00ba
:1019d4000804e00004003200c3cca90024eea800ef
:1019e400c3eca80003003700c3cca800c3eca900d3
:1019f40024cea80040818000518180006900070046
:101a040002002000032224008bfc07001afc0700bc
:101a14000000780030668800048180001581800011
:101a2400e0808000f180800018c0b3000001be0097
:101a34000400be00ebfb07000000e00001003500dd
:101a44000044eb000804e0000d003200e880800050
:101a5400f98080000481800015818000a0808000ce
:101a6400b18080000001be000400be003efb070000
:101a74000801be00790007000081880011818800f8
:101a84000481800015818000e0808000f180800066
:101a940018c0b3000001be000400be00d3fb070061
:101aa4000000e00001003c000044eb000804e000fa
:101ab4000d003200e8808000f980800004818000fd
:101ac40015818000a0808000b18080000001be00ec
:101ad4000400be0023fb07000801be004700070006
:101ae40000818800118188000081800011818000bc
:101af40018c0b3006011b800bcfb07000000e00090
:101b040001003c000044eb000804e0000400320043
:101b140023cca90015eea80023eca800030037008d
:101b240023cca80023eca90015cea80000818000d6
:101b3400118180001b000700020020000322240002
:101b44003dfc0700ccfb07000000780030618800f2
:101b54004f04be000080fa00000006000600fa00f0
:101b6400008fbe00220798002e009000e10f500065
:101b740005003a001e0178009e019000e280880072
:101b8400f3808800050037001e0078009e00900056
:101b940001f0a20020818800318188000080fa00d1
:101ba400000006000400fa00881f7800008fbe00c1
:101bb40018c0b3006011b8001e0078009e009000a9
:101bc4008afb07000000e00001003d000044eb0038
:101bd4000804e000030032001e0078009e0090001c
:101be400030037001e0078009e00900001f0a20060
:101bf4004f0478000080fa00000006000800fa0094
:101c0400881f7800008fbe002207980033079800d1
:101c140018c0b3002e019000be0190001e00780091
:101c24009e00900071fb07000000e00001003c00f2
:101c34000044eb000804e000030032001e007800ba
:101c44009e009000020037002e009000be0090001d
:101c54004f0478000080fa00000006000800fa0033
:101c6400881f7800008fbe00220798003307980071
:101c740018c0b3002e019000be0190001e00780031
:101c84009e00900057fb07000000e00001003500b3
:101c94000044eb000804e000030032001e0078005a
:101ca4009e009000020037002e009000be009000bd
:101cb4004f0478000080fa00000006000c00fa00cf
:101cc400881f7800008fbe00220798003307980011
:101cd400440798005507980018c0b3004e019000bf
:101ce400de0190001e0078009e0090003ffb07007c
:101cf4000000e00001003c000044eb000804e000a8
:101d0400040032004e019000de019000028fbe00fc
:101d14000e00370018c0b3002e019000be019000e1
:101d24001e0078009e0090002efb07000000e000db
:101d3400010035000044eb000804e0000300320019
:101d44002e019000be019000028fbe001e0078009c
:101d54009e0090004f0478000080fa000000060006
:101d64000400fa00008fbe00b2fd2000930424009a
:101d74001e0078009e009000d8fa070002002000a0
:101d840043332400acfb07000080fa000000060087
:101d94000400fa00008fbe00b2fd2000930424006a
:101da4001e0078009e009000a3fb070002002000a4
:101db40043332400c9fa07000080fa00000006003b
:101dc4000000fa0021e3a9002143a80001198000c2
:101dd400f0cf2f0000806000001988002043a90084
:101de40001198000000e2000010070000019880015
:101df40011198000f0ff2100008060001019880094
:101e04002343a80011198000f0cf2f000080600048
:101e1400101988001119800030f82f00008060002c
:101e24000030a000101988002203a9002223a90071
:101e340025e3a900f0c0b30024e3b7002119800012
:101e4400f00f2e008080600000f020000100700080
:101e5400201988003303a9002e0ea8002f6ea800b5
:101e64006f2ea80030c3a8003163a8002e03a80079
:101e74004119800000fc2f00008060004019880098
:101e840028e3a90001a8a90021a8a80021e3a8002b
:101e94000080fa00000006000000fa002023a800d9
:101ea4000080fa00000006000000fa002000210073
:101eb4000080fa00000006000000fa000ad0bf000b
:101ec4000080fa00000006000000fa000a70ef002b
:101ed4000080fa00000006000000fa00f003200071
:101ee400303a8800213a8000f0f32f00008060002f
:101ef400203a8800213a800000fe2f000080600014
:101f04000000a000203a8800120020008007200072
:101f1400a1092000337420008049780081497800a9
:101f240082497800103a8000000178000200a00085
:101f3400600420007105200023742000804978008b
:101f4400814978008249780000000000113a80003d
:101f5400000027008080600000002100808f500076
:101f6400faff3a0000000000113a8000000220004d
:101f7400008060000000e000fbff32000080fa00f7
:041f84000000060053
:020000040000fa
:101f88001810000002000000800000000c10000083
:101f98000800000080000000141000000400000089
:101fa800820000000000a0004000000000100000b7
:101fb8000c000000800000001a1000001e00000045
:081fc800800000000000000091
:020000040000fa
:101fd0000000fa000e2eef001e2eef002e2eef0056
:101fe0003e2eef004e2eef005e2eef006e2eef0025
:101ff000214ea90060cea90060eea90011cea90073
:1020000011eea90020cea90020eea9000080fa0060
:0420100000000600c6
:020000040000fa
:02000004000af0
:04afe000cfff00009f
:020000040000fa
:02000004000af0
:04afe400ffff00006b
:020000040000fa
:02000004000af0
:04afe8007fff0000e7
:020000040000fa
:02000004000af0
:04afec005fff000003
:020000040000fa
:02000004000af0
:04aff00038ff000026
:020000040000fa
:02000004000af0
:04aff400ffff00005b
:00000001FF
